:100000000C9424010C9443010C9441010C94410183
:100010000C9441010C9441010C9441010C94410158
:100020000C9441010C9441010C9441010C94410148
:100030000C9441010C9441010C9441010C94410138
:100040000C9441010C9441010C9441010C94410128
:100050000C9441010C9441010C9441010C94410118
:100060000C9441010C944101000000000000005F6D
:1000700000000007000700147F147F14242A7F2A41
:10008000122313086462364955225000050300000C
:10009000001C2241000041221C0014083E081408E4
:1000A000083E0808005030000008080808080060F2
:1000B00060000020100804023E5149453E00427F86
:1000C000400042615149462141454B311814127F8D
:1000D0001027454545393C4A494930017109050316
:1000E0003649494936064949291E0036360000007E
:1000F0005636000008142241001414141414004150
:100100002214080201510906324979413E7E11113B
:10011000117E7F494949363E414141227F4141227A
:100120001C7F494949417F090909013E4149497AF2
:100130007F0808087F00417F41002040413F017F48
:10014000081422417F404040407F020C027F7F0420
:1001500008107F3E4141413E7F090909063E415159
:10016000215E7F09192946464949493101017F012C
:10017000013F4040403F1F2040201F3F4038403F4C
:100180006314081463070870080761514945430068
:100190007F41410002040810200041417F00040219
:1001A0000102044040404040000102040020545439
:1001B00054787F48444438384444442038444448C0
:1001C0007F3854545418087E0901020C5252523E92
:1001D0007F0804047800447D40002040443D007FB7
:1001E0001028440000417F40007C041804787C08FB
:1001F00004047838444444387C1414140808141453
:10020000187C7C080404084854545420043F44409B
:10021000203C4040207C1C2040201C3C4030403C86
:1002200044281028440C5050503C4464544C440022
:100230000836410000007F00000041360800100829
:10024000081008000000000011241FBECFEFD8E006
:10025000DEBFCDBF11E0A0E0B1E0EAECF6E102C004
:1002600005900D92AA36B107D9F723E0AAE6B1E0CE
:1002700001C01D92AD3AB207E1F70E94E0050C946F
:10028000630B0C9400001F921FB61F9211248F93D2
:100290004A990DC080916D01813011F480936F01F6
:1002A00080916C01811103C081E080936D018F9179
:1002B0001F901FBE1F90189587E080930E0181E26A
:1002C00080930D0191E190930C012BE220930B019F
:1002D0009CE490930A018093090180E580930801D2
:1002E00020930701909306019CE090930501809371
:1002F00004018FE1809303011092700110926F014D
:1003000081E08093010110926E0108950F931F9375
:10031000CF93DF93CDB7DEB72D970FB6F894DEBF3E
:100320000FBECDBF0E94520360E084E10E943C04F6
:1003300061E085E191E00E942C046CE08CE00E9479
:100340003C04809170011F928F938EE191E09F9306
:100350008F938E010F5F1F4F1F930F930E94920880
:1003600061E0C8010E942C046CE18CE00E943C0416
:1003700061E088E291E00E942C0468E28CE00E9437
:100380003C0461E083E391E00E942C040E9441045C
:100390000F900F900F900F900F900F902D960FB61B
:1003A000F894DEBF0FBECDBFDF91CF911F910F91AB
:1003B000089560E08DE10E943C0461E08EE391E0ED
:1003C0000E942C0464E186E10E943C0461E083E425
:1003D00091E00E942C046EE182E10E943C0461E005
:1003E0008BE491E00E942C040C9441040F931F9322
:1003F000CF93DF93CDB7DEB72D970FB6F894DEBF5E
:100400000FBECDBF0E94520360E08FE00E943C040B
:1004100061E084E591E00E942C046CE08FE00E9492
:100420003C04809170011F928F938EE191E09F9325
:100430008F938E010F5F1F4F1F930F930E9492089F
:1004400061E0C8010E942C046CE18CE00E943C0435
:1004500061E088E291E00E942C0468E28CE00E9456
:100460003C0461E083E391E00E942C040E9441047B
:100470000F900F900F900F900F900F902D960FB63A
:10048000F894DEBF0FBECDBFDF91CF911F910F91CA
:1004900008950F931F93CF93DF93CDB7DEB72D97BA
:1004A0000FB6F894DEBF0FBECDBF0E94520320915D
:1004B00012014091130160911401809172010E9418
:1004C000560420910F01409110016091110180911B
:1004D00071010E94560420910B0140910C01609122
:1004E0000D0180910E010E944B0580910001813029
:1004F00081F52091070140910801609109018091E7
:100500000A010E944B05809170011F928F938EE526
:1005100091E09F938F938E010F5F1F4F1F930F9357
:100520000E94920861E0C8010E942C040E944104CC
:100530000F900F900F900F900F900F902D960FB679
:10054000F894DEBF0FBECDBFDF91CF911F910F9109
:10055000089520910301409104016091050180916B
:100560000601CFCF90910A01915090930A0180919A
:10057000080181508093080110926A01992311F0BB
:1005800081110EC080E580930A018CE480930801FC
:10059000809170018F5F8093700181E080936A0188
:1005A0000895909106019150909306018091040165
:1005B00081508093040110926A01992311F08111F6
:1005C0000EC080E5809306018CE480930401809145
:1005D00070018F5F8093700181E080936A010895BC
:1005E00029986623A9F02B9A27E030E090E0AC012F
:1005F000022E02C0559547950A94E2F740FF0AC0C3
:100600002C9A2D9A2D982150310988F7299A08950E
:100610002B98EACF2C98F5CF60E00C94F002CF93A2
:10062000DF93219A229A239A249A259A2A9A299A20
:100630008FE39CE90197F1F700C000002A989FEF33
:100640002AE683E0915020408040E1F700C000009E
:100650002A9A299881E20E940C0383E10E940C03EC
:1006600086E00E940C0382EC0E940C0380E20E9450
:100670000C0389E00E940C0380E80E940C0380E4D4
:100680000E940C03C8EFD1E061E080E00E94F0021C
:100690002197D1F788E00E940C038CE0DF91CF9185
:1006A0000C940C0380E80E940C0380E40E940C036D
:1006B0001092AB031092AC03E3EBF1E088EF91E012
:1006C000DF019C011D9221503040E1F70895811116
:1006D00003C084E20C940C0380E2FCCF962F969525
:1006E00096959695E82FF0E084E5989FE00DF11D32
:1006F0001124ED54FE4F2081677081E090E001C02D
:10070000880F6A95EAF7442319F0282B208308956F
:1007100080952823FBCF8F929F92AF92BF92DF925A
:10072000EF92FF920F931F93CF93DF9300D000D0EF
:100730000F92CDB7DEB7E82FF62E80320CF44DC005
:10074000E05285E0E802B001112468597F4F45E08E
:1007500050E0CE0101960E9489088E010F5F1F4F65
:1007600095E0F99E5001112487E0F89E4001112484
:10077000E12CEA141B040CF463C08091AB038F5F7F
:100780009F2D990F990F9F0D890F8093AB0384358F
:1007900058F08091AC031092AB038F5F97E0F99E05
:1007A000800D11248093AC038091AC03803320F042
:1007B0001092AB031092AC030F900F900F900F901C
:1007C0000F90DF91CF911F910F91FF90EF90DF90ED
:1007D000BF90AF909F908F900895EE0FFF0BED5854
:1007E000FE4F008111810115110509F0B9CF45E0D7
:1007F00050E068E670E0ADCFED0D5E0D8E2D6F2DF3
:100800000E94B306D801A80FB11D2C9130E08D2DA8
:100810000E94B30602C0359527958A95E2F741E01C
:1008200020FF40E06E2F852F0E946E03D394E0914D
:10083000AC035091AB03D8141904F4F2E39499CFAC
:10084000D12CF5CFE82F803234F4EE0FFF0BED58AA
:10085000FE4F7183608308951F93CF93DF93162F0C
:10086000EC018991811104C0DF91CF911F9108950E
:10087000612F0E948B03F5CF8093AB036093AC0391
:100880000895CF93DF9380E80E940C0380E40E94D8
:100890000C03C3EBD1E061E089910E94F00283E098
:1008A000CB3AD807C1F7DF91CF9108954F925F926D
:1008B0006F927F928F929F92AF92BF92CF92DF9270
:1008C000EF92FF92CF93DF93CDB7DEB762970FB66B
:1008D000F894DEBF0FBECDBF8D876987F22E481B0F
:1008E000550BCA01550FAA0BBB0B89839A83AB83A7
:1008F000BC83BC01CD010E94D40769837A838B83BA
:100900009C83AF2D4985A41BBB0BCD01BB0FAA0B4C
:10091000BB0B8D839E83AF83B887BC01CD010E9442
:10092000D4076D837E838F839887C980DA80EB80BC
:10093000FC80E894F7F84B015C01E894B7F8A50156
:100940009401C701B6010E94840887FF02C07501A7
:100950006401A701960169817A818B819C810E9443
:10096000310769837A838B839C834B015C01A701E8
:1009700096016D817E818F8198850E9431072B01C0
:100980003C019D85892F90E0B0E0A0E089839A83A7
:10099000AB83BC83BC01CD010E94D20769837A83FB
:1009A0008B839C839985892F90E0B0E0A0E08D83B4
:1009B0009E83AF83B887BC01CD010E94D2076D83AF
:1009C0007E838F839887A1E0B0E0BA8BA98B898959
:1009D0009A89092E000CAA0BBB0B89879A87AB87D3
:1009E000BC87BC01CD010E94D40769877A878B87B9
:1009F0009C87A70196010E942C071816ACF46296FA
:100A00000FB6F894DEBF0FBECDBFDF91CF91FF9040
:100A1000EF90DF90CF90BF90AF909F908F907F909E
:100A20006F905F904F9008956D817E818F81988542
:100A30000E94A30769877A878B879C8769817A815F
:100A40008B819C810E94A3076D877E878F87988BFF
:100A500041E069858D850E946E03A501940169813D
:100A60007A818B819C810E94C00669837A838B8303
:100A70009C83A30192016D817E818F8198850E9464
:100A8000C0066D837E838F83988789899A890196B2
:100A90009A8B898B9CCF0F931F93CF93DF93C82F93
:100AA000162F042FD22F262F0E9456042D2F402FB1
:100AB000612F802F0E9456042D2F4C2F6D2F802FD9
:100AC0000E945604212F4C2F6D2F8C2FDF91CF9138
:100AD0001F910F910C9456047F928F929F92AF9228
:100AE000BF92CF92DF92EF92FF920F931F93CF931B
:100AF000DF93D82EC62EC42FD0E0F12CE12C10E0CD
:100B000000E041E0AC2CA00E6A2DBC2EBD0C8B2D5C
:100B10000E946E0341E08C2E8C0C682D9D2C900E53
:100B2000892D0E946E0341E0682D7D2C701A872D5F
:100B30000E946E0341E06A2D8D2C8C1A882D0E9434
:100B40006E0341E0AC2CA01A6A2D882D0E946E0322
:100B500041E08C2C8C1A682D872D0E946E0341E099
:100B6000682D892D0E946E0341E06A2D8B2D0E9415
:100B70006E031E141F045CF00F5F1F4FC801880F27
:100B8000991F0196E80EF91E1E141F043CF42197CC
:100B9000CE01880F991F0196E81AF90AC017D107EC
:100BA0000CF0AFCFDF91CF911F910F91FF90EF909D
:100BB000DF90CF90BF90AF909F908F907F900895DF
:100BC0000E940F030E94520384B18F6184B98AB1DD
:100BD0001AB88091680084608093680080916D00ED
:100BE000816080936D005A9A82E08093690081E071
:100BF0008DBB7894D3E012E0C1E080910201813096
:100C000039F090E080E008950E94D90110926C01C3
:100C100080916D018823C1F3809170018A30D1F4F5
:100C200010926F010E94860180916F018130D1F78F
:100C300010926D01C0936C010E9452030E945C01EE
:100C400080916B018F5F80936B018B3FB0F21092AC
:100C50006B01D3CF80916F01813009F060C0809328
:100C60006E0110926F0180910101813009F05CC02A
:100C700080910D018E3008F46BC0815080930D017E
:100C800080910B01815080930B018FE99FE00197C8
:100C9000F1F700C0000080910001813009F05DC0D3
:100CA0000E94B20220916A01213049F480916B01C7
:100CB0006D2F0E94B306911153C0109300010E9442
:100CC000490280910C0190910A01891760F02091EE
:100CD000090190910B01921730F02091070190913A
:100CE0000D01291798F490910601891708F4A8CFEF
:100CF0009091050180910B01891708F4A1CF909183
:100D0000030180910D01981708F49ACF10926F019A
:100D10000E94F60180916F018130D1F789CF8091D7
:100D20006E01813009F49FCF80910B018B3240F42A
:100D300090910D019F5F90930D018F5F80930B0148
:100D400080910B018B3209F0A0CFC09301019DCFA0
:100D500010926E011092010198CF0E94D102A2CF91
:100D600020930001ACCF991B79E004C0991F96171E
:100D700008F0961B881F7A95C9F7809508955058FA
:100D8000BB27AA270E94D7060C944A080E943C0859
:100D900038F00E94430820F039F49F3F19F426F4FC
:100DA0000C9439080EF4E095E7FB0C943308E92F16
:100DB0000E945B0858F3BA17620773078407950708
:100DC00020F079F4A6F50C947D080EF4E0950B2E36
:100DD000BA2FA02D0B01B90190010C01CA01A0018D
:100DE0001124FF27591B99F0593F50F4503E68F1E8
:100DF0001A16F040A22F232F342F4427585FF3CF29
:100E0000469537952795A795F0405395C9F77EF4F9
:100E10001F16BA0B620B730B840BBAF09150A1F042
:100E2000FF0FBB1F661F771F881FC2F70EC0BA0FC8
:100E3000621F731F841F48F4879577956795B79550
:100E4000F7959E3F08F0B0CF9395880F08F099274B
:100E5000EE0F9795879508950E940F0808F481E09A
:100E600008950E9445070C944A080E94430858F0D0
:100E70000E943C0840F029F45F3F29F00C943308AD
:100E800051110C947E080C9439080E945B0868F399
:100E90009923B1F3552391F3951B550BBB27AA2733
:100EA00062177307840738F09F5F5F4F220F331F6D
:100EB000441FAA1FA9F335D00E2E3AF0E0E832D035
:100EC00091505040E695001CCAF72BD0FE2F29D038
:100ED000660F771F881FBB1F261737074807AB070A
:100EE000B0E809F0BB0B802DBF01FF2793585F4F7F
:100EF0003AF09E3F510578F00C9433080C947E082C
:100F00005F3FE4F3983ED4F3869577956795B79560
:100F1000F7959F5FC9F7880F911D9695879597F96B
:100F20000895E1E0660F771F881FBB1F62177307E4
:100F30008407BA0720F0621B730B840BBA0BEE1FF9
:100F400088F7E09508950E94630888F09F5798F00D
:100F5000B92F9927B751B0F0E1F0660F771F881FBE
:100F6000991F1AF0BA95C9F714C0B13091F00E94D8
:100F70007D08B1E008950C947D08672F782F8827AD
:100F8000B85F39F0B93FCCF3869577956795B395FF
:100F9000D9F73EF490958095709561957F4F8F4F6E
:100FA0009F4F0895E89409C097FB3EF49095809573
:100FB000709561957F4F8F4F9F4F9923A9F0F92F1F
:100FC00096E9BB279395F695879577956795B7959D
:100FD000F111F8CFFAF4BB0F11F460FF1BC06F5F83
:100FE0007F4F8F4F9F4F16C0882311F096E911C095
:100FF000772321F09EE8872F762F05C0662371F0B6
:1010000096E8862F70E060E02AF09A95660F771FC9
:10101000881FDAF7880F9695879597F90895990FA5
:101020000008550FAA0BE0E8FEEF16161706E807B2
:10103000F907C0F012161306E407F50798F0621BD3
:10104000730B840B950B39F40A2661F0232B242BA8
:10105000252B21F408950A2609F4A140A6958FEFC7
:10106000811D811D089597F99F6780E870E060E019
:1010700008959FEF80EC089500240A941616170631
:1010800018060906089500240A9412161306140679
:1010900005060895092E0394000C11F4882352F0DC
:1010A000BB0F40F4BF2B11F460FF04C06F5F7F4F94
:1010B0008F4F9F4F089557FD9058440F551F59F07B
:1010C0005F3F71F04795880F97FB991F61F09F3F35
:1010D00079F087950895121613061406551FF2CF5E
:1010E0004695F1DF08C0161617061806991FF1CFAE
:1010F00086957105610508940895E894BB276627D5
:101100007727CB0197F908950E940F0808F48FEF15
:101110000895FB01DC0102C005900D924150504042
:10112000D8F70895AEE0B0E0E8E9F8E00C943A0BA7
:101130000D891E8986E08C831A8309838FEF9FE7D0
:101140009E838D83AE01475E5F4F6F89788DCE01A0
:1011500001960E94B5082F813885020F131FF801F0
:1011600010822E96E4E00C94560BAFE0B0E0EBEB6F
:10117000F8E00C942C0B7C013B018A01DC011796F2
:101180001C921E92169713968C9181FFBEC19AE015
:10119000292EFE0131964F01D70113969C91F30140
:1011A00093FD859193FF81913F01882309F444C108
:1011B000853239F493FD859193FF81913F0185320A
:1011C00029F4B70190E00E949E0AE6CFB12C412C91
:1011D000512CBFE1B51538F08B3209F188F480321B
:1011E00001F1833221F157FC3AC020ED280F2A305B
:1011F00040F556FE1FC0B29C200D1124B22E06C031
:101200008D3291F0803379F7689450F8F30193FDB3
:10121000859193FF81913F018111DBCF20C06894BC
:1012200051F8689452F8F2CF689453F8EFCF68946D
:1012300054F8ECCF429C200D1124422E689455F8AE
:10124000E5CF8E3229F456FCF7C0689456F8DECF0D
:101250008C3619F4689457F8D9CF8836B9F2982F9C
:101260009F7D95549330C0F0833681F18337A1F18F
:10127000833509F05BC0D801CD90DD908D016B2DD9
:1012800070E056FC02C06FEF7FEFC6010E94880A33
:101290005C01689457F80AC00C5F1F4FEFE3E983C5
:1012A000AA24A394B12C6401E89457F853FE29C0F2
:1012B000342CA114B10451F5332009F46DCFB701DA
:1012C00080E290E00E949E0A3A94F6CFD8018C9179
:1012D00089830E5F1F4FE4CFF801C190D1908F0139
:1012E0006B2D70E056FC02C06FEF7FEFC6010E94CD
:1012F000930A5C01D9CFB70180E290E00E949E0A78
:101300004A944A141B0409F0B0F7D2CFF60157FCF7
:10131000859157FE81916F01B70190E00E949E0A6E
:1013200031103A94B1E0AB1AB108C3CF843619F04A
:10133000893609F071C0F80157FE67C0619171915B
:10134000819191918F01E52DEF76DE2E97FF09C0F7
:1013500090958095709561957F4F8F4F9F4F6894C2
:10136000D7F82AE030E0A4010E94CE0AC82EC8189F
:10137000AC2C5D2CD6FE0CC0E89450F8CB1440F495
:10138000D4FE05C0D2FC03C05D2D5E7E552EAB2C75
:1013900054FE93C0FE01EC0DF11D8081803309F0F5
:1013A00085C0652D697E562E752D7870372E53FCBD
:1013B00093C050FE8DC0BC2CA41410F4B40CBA1809
:1013C00054FE90C0B70180E390E00E949E0A52FE56
:1013D00007C088E751FC88E590E0B7010E949E0AAB
:1013E000CB1408F48BC0CA94D12C8FEFC81AD80A3A
:1013F000C80CD91CD6018E916D01B70190E00E94F6
:101400009E0A8C149D04B1F757CF61917191072EFC
:10141000000C880B990B96CFD52CE894D4F82AE0D1
:10142000853729F1F52DF97FDF2E8037A1F058F4AB
:101430008835A1F08F36D1F0F701868197812F96FC
:10144000E2E10C94480B8837B9F7D4FE02C06894E7
:10145000D2F820E10CC06894D4F8F7CF54FE03C052
:101460002F2F2660D22E20E132E002C028E030E0AB
:10147000F801D7FE15C041915191619171914C874E
:101480005D876E877F878F01A4016C857D858E8542
:101490009F850E94CE0AC82EC818E894D7F868CF56
:1014A00081919191AC0170E060E0E9CF52FC02C003
:1014B000A3947ACFA394A39477CF852D867809F44B
:1014C00073CFF6CFB70180E290E00E949E0AA3940A
:1014D000A414C0F3312C74CF342C3A18A41408F49B
:1014E0006FCFF8CF852D867809F47ACF8BE251FE45
:1014F00080E257FC8DE2B70190E070CFB70180E346
:1015000090E00E949E0ABA946BCF8FEF9FEF97CF27
:10151000FC010590615070400110D8F780959095BE
:101520008E0F9F1F0895FC016150704001900110C3
:10153000D8F7809590958E0F9F1F08950F931F9356
:10154000CF93DF93182F092FEB018B8181FD09C009
:101550001FEF0FEF812F902FDF91CF911F910F91F0
:10156000089582FF14C02E813F818C819D812817B0
:1015700039073CF4E881F981CF010196998388838A
:1015800010838E819F8101969F838E83E3CFE885B0
:10159000F985812F0995892BA1F3DACFFA01AA27C2
:1015A000283051F1203181F1E8946F936E7F6E5FA6
:1015B0007F4F8F4F9F4FAF4FB1E03ED0B4E03CD054
:1015C000670F781F891F9A1FA11D680F791F8A1F37
:1015D000911DA11D6A0F711D811D911DA11D20D09E
:1015E00009F468943F912AE0269F11243019305D58
:1015F0003193DEF6CF010895462F4770405D419349
:10160000B3E00FD0C9F7F6CF462F4F70405D4A3395
:1016100018F0495D31FD4052419302D0A9F7EACF5D
:10162000B4E0A6959795879577956795BA95C9F78C
:1016300000976105710508959B01AC010A2E06947F
:101640005795479537952795BA95C9F7620F731F38
:10165000841F951FA01D08952F923F924F925F9275
:101660006F927F928F929F92AF92BF92CF92DF92B2
:10167000EF92FF920F931F93CF93DF93CDB7DEB717
:10168000CA1BDB0B0FB6F894DEBF0FBECDBF0994AB
:101690002A88398848885F846E847D848C849B8402
:1016A000AA84B984C884DF80EE80FD800C811B8110
:1016B000AA81B981CE0FD11D0FB6F894DEBF0FBE3F
:0A16C000CDBFED010895F894FFCFAF
:1016CA000101011F500C4C2B50214C2B1121070CEE
:1016DA00530C2B532B596F7520576F6E2100536390
:1016EA006F72653A20256400507265737320772003
:1016FA00546F00506C617920416761696E004761DF
:10170A006D65005072657373207700746F2073746F
:10171A0061727400596F75204C6F73742100706F79
:0A172A00696E74733A202564000014
:040000050080016D09
:00000001FF
